{
  "address": "0x339b38d8298945a7594Df326944821214C260BD9",
  "abi": [
    {
      "inputs": [],
      "stateMutability": "nonpayable",
      "type": "constructor"
    },
    {
      "anonymous": false,
      "inputs": [
        {
          "indexed": true,
          "internalType": "address",
          "name": "owner",
          "type": "address"
        },
        {
          "indexed": true,
          "internalType": "address",
          "name": "approved",
          "type": "address"
        },
        {
          "indexed": true,
          "internalType": "uint256",
          "name": "tokenId",
          "type": "uint256"
        }
      ],
      "name": "Approval",
      "type": "event"
    },
    {
      "anonymous": false,
      "inputs": [
        {
          "indexed": true,
          "internalType": "address",
          "name": "owner",
          "type": "address"
        },
        {
          "indexed": true,
          "internalType": "address",
          "name": "operator",
          "type": "address"
        },
        {
          "indexed": false,
          "internalType": "bool",
          "name": "approved",
          "type": "bool"
        }
      ],
      "name": "ApprovalForAll",
      "type": "event"
    },
    {
      "anonymous": false,
      "inputs": [
        {
          "indexed": true,
          "internalType": "uint256",
          "name": "tokenId",
          "type": "uint256"
        },
        {
          "indexed": false,
          "internalType": "string",
          "name": "tokenURI",
          "type": "string"
        }
      ],
      "name": "CreatedNFT",
      "type": "event"
    },
    {
      "anonymous": false,
      "inputs": [
        {
          "indexed": true,
          "internalType": "address",
          "name": "from",
          "type": "address"
        },
        {
          "indexed": true,
          "internalType": "address",
          "name": "to",
          "type": "address"
        },
        {
          "indexed": true,
          "internalType": "uint256",
          "name": "tokenId",
          "type": "uint256"
        }
      ],
      "name": "Transfer",
      "type": "event"
    },
    {
      "inputs": [
        {
          "internalType": "address",
          "name": "to",
          "type": "address"
        },
        {
          "internalType": "uint256",
          "name": "tokenId",
          "type": "uint256"
        }
      ],
      "name": "approve",
      "outputs": [],
      "stateMutability": "nonpayable",
      "type": "function"
    },
    {
      "inputs": [
        {
          "internalType": "address",
          "name": "owner",
          "type": "address"
        }
      ],
      "name": "balanceOf",
      "outputs": [
        {
          "internalType": "uint256",
          "name": "",
          "type": "uint256"
        }
      ],
      "stateMutability": "view",
      "type": "function"
    },
    {
      "inputs": [],
      "name": "create",
      "outputs": [],
      "stateMutability": "nonpayable",
      "type": "function"
    },
    {
      "inputs": [],
      "name": "formatTokenUri",
      "outputs": [
        {
          "internalType": "string",
          "name": "",
          "type": "string"
        }
      ],
      "stateMutability": "pure",
      "type": "function"
    },
    {
      "inputs": [
        {
          "internalType": "uint256",
          "name": "tokenId",
          "type": "uint256"
        }
      ],
      "name": "getApproved",
      "outputs": [
        {
          "internalType": "address",
          "name": "",
          "type": "address"
        }
      ],
      "stateMutability": "view",
      "type": "function"
    },
    {
      "inputs": [
        {
          "internalType": "address",
          "name": "owner",
          "type": "address"
        },
        {
          "internalType": "address",
          "name": "operator",
          "type": "address"
        }
      ],
      "name": "isApprovedForAll",
      "outputs": [
        {
          "internalType": "bool",
          "name": "",
          "type": "bool"
        }
      ],
      "stateMutability": "view",
      "type": "function"
    },
    {
      "inputs": [],
      "name": "name",
      "outputs": [
        {
          "internalType": "string",
          "name": "",
          "type": "string"
        }
      ],
      "stateMutability": "view",
      "type": "function"
    },
    {
      "inputs": [
        {
          "internalType": "uint256",
          "name": "tokenId",
          "type": "uint256"
        }
      ],
      "name": "ownerOf",
      "outputs": [
        {
          "internalType": "address",
          "name": "",
          "type": "address"
        }
      ],
      "stateMutability": "view",
      "type": "function"
    },
    {
      "inputs": [
        {
          "internalType": "address",
          "name": "from",
          "type": "address"
        },
        {
          "internalType": "address",
          "name": "to",
          "type": "address"
        },
        {
          "internalType": "uint256",
          "name": "tokenId",
          "type": "uint256"
        }
      ],
      "name": "safeTransferFrom",
      "outputs": [],
      "stateMutability": "nonpayable",
      "type": "function"
    },
    {
      "inputs": [
        {
          "internalType": "address",
          "name": "from",
          "type": "address"
        },
        {
          "internalType": "address",
          "name": "to",
          "type": "address"
        },
        {
          "internalType": "uint256",
          "name": "tokenId",
          "type": "uint256"
        },
        {
          "internalType": "bytes",
          "name": "_data",
          "type": "bytes"
        }
      ],
      "name": "safeTransferFrom",
      "outputs": [],
      "stateMutability": "nonpayable",
      "type": "function"
    },
    {
      "inputs": [
        {
          "internalType": "address",
          "name": "operator",
          "type": "address"
        },
        {
          "internalType": "bool",
          "name": "approved",
          "type": "bool"
        }
      ],
      "name": "setApprovalForAll",
      "outputs": [],
      "stateMutability": "nonpayable",
      "type": "function"
    },
    {
      "inputs": [
        {
          "internalType": "bytes4",
          "name": "interfaceId",
          "type": "bytes4"
        }
      ],
      "name": "supportsInterface",
      "outputs": [
        {
          "internalType": "bool",
          "name": "",
          "type": "bool"
        }
      ],
      "stateMutability": "view",
      "type": "function"
    },
    {
      "inputs": [],
      "name": "symbol",
      "outputs": [
        {
          "internalType": "string",
          "name": "",
          "type": "string"
        }
      ],
      "stateMutability": "view",
      "type": "function"
    },
    {
      "inputs": [
        {
          "internalType": "uint256",
          "name": "tokenId",
          "type": "uint256"
        }
      ],
      "name": "tokenURI",
      "outputs": [
        {
          "internalType": "string",
          "name": "",
          "type": "string"
        }
      ],
      "stateMutability": "view",
      "type": "function"
    },
    {
      "inputs": [
        {
          "internalType": "address",
          "name": "from",
          "type": "address"
        },
        {
          "internalType": "address",
          "name": "to",
          "type": "address"
        },
        {
          "internalType": "uint256",
          "name": "tokenId",
          "type": "uint256"
        }
      ],
      "name": "transferFrom",
      "outputs": [],
      "stateMutability": "nonpayable",
      "type": "function"
    }
  ],
  "transactionHash": "0x910e7d5cf63066c96a87c044a74a56e59336ea001e3c3bb24c3492b86bdf0109",
  "args": [],
  "solcInputHash": "6185f72d62e7ee9cd6e3fa37800538a7",
  "bytecode": "0x60806040523480156200001157600080fd5b506040518060400160405280600881526020017f43616d656c4e46540000000000000000000000000000000000000000000000008152506040518060400160405280600381526020017f4a4d4c0000000000000000000000000000000000000000000000000000000000815250816000908051906020019062000096929190620000b8565b508060019080519060200190620000af929190620000b8565b505050620001cd565b828054620000c69062000168565b90600052602060002090601f016020900481019282620000ea576000855562000136565b82601f106200010557805160ff191683800117855562000136565b8280016001018555821562000136579182015b828111156200013557825182559160200191906001019062000118565b5b50905062000145919062000149565b5090565b5b80821115620001645760008160009055506001016200014a565b5090565b600060028204905060018216806200018157607f821691505b602082108114156200019857620001976200019e565b5b50919050565b7f4e487b7100000000000000000000000000000000000000000000000000000000600052602260045260246000fd5b612ee380620001dd6000396000f3fe608060405234801561001057600080fd5b50600436106100f55760003560e01c806370a0823111610097578063c87b56dd11610066578063c87b56dd14610282578063df5f1c70146102b2578063e985e9c5146102d0578063efc81a8c14610300576100f5565b806370a08231146101fc57806395d89b411461022c578063a22cb4651461024a578063b88d4fde14610266576100f5565b8063095ea7b3116100d3578063095ea7b31461017857806323b872dd1461019457806342842e0e146101b05780636352211e146101cc576100f5565b806301ffc9a7146100fa57806306fdde031461012a578063081812fc14610148575b600080fd5b610114600480360381019061010f9190611e3f565b61030a565b60405161012191906127d1565b60405180910390f35b6101326103ec565b60405161013f91906127ec565b60405180910390f35b610162600480360381019061015d9190611e91565b61047e565b60405161016f919061276a565b60405180910390f35b610192600480360381019061018d9190611e03565b610503565b005b6101ae60048036038101906101a99190611cfd565b61061b565b005b6101ca60048036038101906101c59190611cfd565b61067b565b005b6101e660048036038101906101e19190611e91565b61069b565b6040516101f3919061276a565b60405180910390f35b61021660048036038101906102119190611c98565b61074d565b6040516102239190612a0e565b60405180910390f35b610234610805565b60405161024191906127ec565b60405180910390f35b610264600480360381019061025f9190611dc7565b610897565b005b610280600480360381019061027b9190611d4c565b6108ad565b005b61029c60048036038101906102979190611e91565b61090f565b6040516102a991906127ec565b60405180910390f35b6102ba610a61565b6040516102c791906127ec565b60405180910390f35b6102ea60048036038101906102e59190611cc1565b610aea565b6040516102f791906127d1565b60405180910390f35b610308610b7e565b005b60007f80ac58cd000000000000000000000000000000000000000000000000000000007bffffffffffffffffffffffffffffffffffffffffffffffffffffffff1916827bffffffffffffffffffffffffffffffffffffffffffffffffffffffff191614806103d557507f5b5e139f000000000000000000000000000000000000000000000000000000007bffffffffffffffffffffffffffffffffffffffffffffffffffffffff1916827bffffffffffffffffffffffffffffffffffffffffffffffffffffffff1916145b806103e557506103e482610bf2565b5b9050919050565b6060600080546103fb90612c98565b80601f016020809104026020016040519081016040528092919081815260200182805461042790612c98565b80156104745780601f1061044957610100808354040283529160200191610474565b820191906000526020600020905b81548152906001019060200180831161045757829003601f168201915b5050505050905090565b600061048982610c5c565b6104c8576040517f08c379a00000000000000000000000000000000000000000000000000000000081526004016104bf9061296e565b60405180910390fd5b6004600083815260200190815260200160002060009054906101000a900473ffffffffffffffffffffffffffffffffffffffff169050919050565b600061050e8261069b565b90508073ffffffffffffffffffffffffffffffffffffffff168373ffffffffffffffffffffffffffffffffffffffff16141561057f576040517f08c379a0000000000000000000000000000000000000000000000000000000008152600401610576906129ce565b60405180910390fd5b8073ffffffffffffffffffffffffffffffffffffffff1661059e610cc8565b73ffffffffffffffffffffffffffffffffffffffff1614806105cd57506105cc816105c7610cc8565b610aea565b5b61060c576040517f08c379a0000000000000000000000000000000000000000000000000000000008152600401610603906128ae565b60405180910390fd5b6106168383610cd0565b505050565b61062c610626610cc8565b82610d89565b61066b576040517f08c379a0000000000000000000000000000000000000000000000000000000008152600401610662906129ee565b60405180910390fd5b610676838383610e67565b505050565b610696838383604051806020016040528060008152506108ad565b505050565b6000806002600084815260200190815260200160002060009054906101000a900473ffffffffffffffffffffffffffffffffffffffff169050600073ffffffffffffffffffffffffffffffffffffffff168173ffffffffffffffffffffffffffffffffffffffff161415610744576040517f08c379a000000000000000000000000000000000000000000000000000000000815260040161073b906128ee565b60405180910390fd5b80915050919050565b60008073ffffffffffffffffffffffffffffffffffffffff168273ffffffffffffffffffffffffffffffffffffffff1614156107be576040517f08c379a00000000000000000000000000000000000000000000000000000000081526004016107b5906128ce565b60405180910390fd5b600360008373ffffffffffffffffffffffffffffffffffffffff1673ffffffffffffffffffffffffffffffffffffffff168152602001908152602001600020549050919050565b60606001805461081490612c98565b80601f016020809104026020016040519081016040528092919081815260200182805461084090612c98565b801561088d5780601f106108625761010080835404028352916020019161088d565b820191906000526020600020905b81548152906001019060200180831161087057829003601f168201915b5050505050905090565b6108a96108a2610cc8565b83836110c3565b5050565b6108be6108b8610cc8565b83610d89565b6108fd576040517f08c379a00000000000000000000000000000000000000000000000000000000081526004016108f4906129ee565b60405180910390fd5b61090984848484611230565b50505050565b606061091a82610c5c565b610959576040517f08c379a00000000000000000000000000000000000000000000000000000000081526004016109509061294e565b60405180910390fd5b600060066000848152602001908152602001600020805461097990612c98565b80601f01602080910402602001604051908101604052809291908181526020018280546109a590612c98565b80156109f25780601f106109c7576101008083540402835291602001916109f2565b820191906000526020600020905b8154815290600101906020018083116109d557829003601f168201915b505050505090506000610a0361128c565b9050600081511415610a19578192505050610a5c565b600082511115610a4e578082604051602001610a36929190612710565b60405160208183030381529060405292505050610a5c565b610a57846112a3565b925050505b919050565b606060006040518060400160405280601d81526020017f646174613a6170706c69636174696f6e2f6a736f6e3b6261736536342c000000815250905080610ac4604051602001610ab090612734565b60405160208183030381529060405261134a565b604051602001610ad5929190612710565b60405160208183030381529060405291505090565b6000600560008473ffffffffffffffffffffffffffffffffffffffff1673ffffffffffffffffffffffffffffffffffffffff16815260200190815260200160002060008373ffffffffffffffffffffffffffffffffffffffff1673ffffffffffffffffffffffffffffffffffffffff16815260200190815260200160002060009054906101000a900460ff16905092915050565b6000610b8a60076114e9565b9050610b9633826114f7565b6000610ba0610a61565b9050610bac8282611515565b817fb5a8d8cf5d01b5006e471421ba7da032446e2a82412342ed548b7aeed0ea9b6982604051610bdc91906127ec565b60405180910390a2610bee6007611589565b5050565b60007f01ffc9a7000000000000000000000000000000000000000000000000000000007bffffffffffffffffffffffffffffffffffffffffffffffffffffffff1916827bffffffffffffffffffffffffffffffffffffffffffffffffffffffff1916149050919050565b60008073ffffffffffffffffffffffffffffffffffffffff166002600084815260200190815260200160002060009054906101000a900473ffffffffffffffffffffffffffffffffffffffff1673ffffffffffffffffffffffffffffffffffffffff1614159050919050565b600033905090565b816004600083815260200190815260200160002060006101000a81548173ffffffffffffffffffffffffffffffffffffffff021916908373ffffffffffffffffffffffffffffffffffffffff160217905550808273ffffffffffffffffffffffffffffffffffffffff16610d438361069b565b73ffffffffffffffffffffffffffffffffffffffff167f8c5be1e5ebec7d5bd14f71427d1e84f3dd0314c0f7b2291e5b200ac8c7c3b92560405160405180910390a45050565b6000610d9482610c5c565b610dd3576040517f08c379a0000000000000000000000000000000000000000000000000000000008152600401610dca9061288e565b60405180910390fd5b6000610dde8361069b565b90508073ffffffffffffffffffffffffffffffffffffffff168473ffffffffffffffffffffffffffffffffffffffff161480610e4d57508373ffffffffffffffffffffffffffffffffffffffff16610e358461047e565b73ffffffffffffffffffffffffffffffffffffffff16145b80610e5e5750610e5d8185610aea565b5b91505092915050565b8273ffffffffffffffffffffffffffffffffffffffff16610e878261069b565b73ffffffffffffffffffffffffffffffffffffffff1614610edd576040517f08c379a0000000000000000000000000000000000000000000000000000000008152600401610ed49061298e565b60405180910390fd5b600073ffffffffffffffffffffffffffffffffffffffff168273ffffffffffffffffffffffffffffffffffffffff161415610f4d576040517f08c379a0000000000000000000000000000000000000000000000000000000008152600401610f449061284e565b60405180910390fd5b610f5883838361159f565b610f63600082610cd0565b6001600360008573ffffffffffffffffffffffffffffffffffffffff1673ffffffffffffffffffffffffffffffffffffffff1681526020019081526020016000206000828254610fb39190612bae565b925050819055506001600360008473ffffffffffffffffffffffffffffffffffffffff1673ffffffffffffffffffffffffffffffffffffffff168152602001908152602001600020600082825461100a9190612acd565b92505081905550816002600083815260200190815260200160002060006101000a81548173ffffffffffffffffffffffffffffffffffffffff021916908373ffffffffffffffffffffffffffffffffffffffff160217905550808273ffffffffffffffffffffffffffffffffffffffff168473ffffffffffffffffffffffffffffffffffffffff167fddf252ad1be2c89b69c2b068fc378daa952ba7f163c4a11628f55a4df523b3ef60405160405180910390a4505050565b8173ffffffffffffffffffffffffffffffffffffffff168373ffffffffffffffffffffffffffffffffffffffff161415611132576040517f08c379a00000000000000000000000000000000000000000000000000000000081526004016111299061286e565b60405180910390fd5b80600560008573ffffffffffffffffffffffffffffffffffffffff1673ffffffffffffffffffffffffffffffffffffffff16815260200190815260200160002060008473ffffffffffffffffffffffffffffffffffffffff1673ffffffffffffffffffffffffffffffffffffffff16815260200190815260200160002060006101000a81548160ff0219169083151502179055508173ffffffffffffffffffffffffffffffffffffffff168373ffffffffffffffffffffffffffffffffffffffff167f17307eab39ab6107e8899845ad3d59bd9653f200f220920489ca2b5937696c318360405161122391906127d1565b60405180910390a3505050565b61123b848484610e67565b611247848484846115a4565b611286576040517f08c379a000000000000000000000000000000000000000000000000000000000815260040161127d9061280e565b60405180910390fd5b50505050565b606060405180602001604052806000815250905090565b60606112ae82610c5c565b6112ed576040517f08c379a00000000000000000000000000000000000000000000000000000000081526004016112e4906129ae565b60405180910390fd5b60006112f761128c565b905060008151116113175760405180602001604052806000815250611342565b806113218461173b565b604051602001611332929190612710565b6040516020818303038152906040525b915050919050565b606060008251141561136d576040518060200160405280600081525090506114e4565b6000604051806060016040528060408152602001612e6e604091399050600060036002855161139c9190612acd565b6113a69190612b23565b60046113b29190612b54565b905060006020826113c39190612acd565b67ffffffffffffffff811115611402577f4e487b7100000000000000000000000000000000000000000000000000000000600052604160045260246000fd5b6040519080825280601f01601f1916602001820160405280156114345781602001600182028036833780820191505090505b509050818152600183018586518101602084015b818310156114a3576003830192508251603f8160121c168501518253600182019150603f81600c1c168501518253600182019150603f8160061c168501518253600182019150603f8116850151825360018201915050611448565b6003895106600181146114bd57600281146114cd576114d8565b613d3d60f01b60028303526114d8565b603d60f81b60018303525b50505050508093505050505b919050565b600081600001549050919050565b6115118282604051806020016040528060008152506118e8565b5050565b61151e82610c5c565b61155d576040517f08c379a00000000000000000000000000000000000000000000000000000000081526004016115549061290e565b60405180910390fd5b80600660008481526020019081526020016000209080519060200190611584929190611b24565b505050565b6001816000016000828254019250508190555050565b505050565b60006115c58473ffffffffffffffffffffffffffffffffffffffff16611943565b1561172e578373ffffffffffffffffffffffffffffffffffffffff1663150b7a026115ee610cc8565b8786866040518563ffffffff1660e01b81526004016116109493929190612785565b602060405180830381600087803b15801561162a57600080fd5b505af192505050801561165b57506040513d601f19601f820116820180604052508101906116589190611e68565b60015b6116de573d806000811461168b576040519150601f19603f3d011682016040523d82523d6000602084013e611690565b606091505b506000815114156116d6576040517f08c379a00000000000000000000000000000000000000000000000000000000081526004016116cd9061280e565b60405180910390fd5b805181602001fd5b63150b7a0260e01b7bffffffffffffffffffffffffffffffffffffffffffffffffffffffff1916817bffffffffffffffffffffffffffffffffffffffffffffffffffffffff191614915050611733565b600190505b949350505050565b60606000821415611783576040518060400160405280600181526020017f300000000000000000000000000000000000000000000000000000000000000081525090506118e3565b600082905060005b600082146117b557808061179e90612cca565b915050600a826117ae9190612b23565b915061178b565b60008167ffffffffffffffff8111156117f7577f4e487b7100000000000000000000000000000000000000000000000000000000600052604160045260246000fd5b6040519080825280601f01601f1916602001820160405280156118295781602001600182028036833780820191505090505b5090505b600085146118dc576001826118429190612bae565b9150600a856118519190612d13565b603061185d9190612acd565b60f81b818381518110611899577f4e487b7100000000000000000000000000000000000000000000000000000000600052603260045260246000fd5b60200101907effffffffffffffffffffffffffffffffffffffffffffffffffffffffffffff1916908160001a905350600a856118d59190612b23565b945061182d565b8093505050505b919050565b6118f28383611956565b6118ff60008484846115a4565b61193e576040517f08c379a00000000000000000000000000000000000000000000000000000000081526004016119359061280e565b60405180910390fd5b505050565b600080823b905060008111915050919050565b600073ffffffffffffffffffffffffffffffffffffffff168273ffffffffffffffffffffffffffffffffffffffff1614156119c6576040517f08c379a00000000000000000000000000000000000000000000000000000000081526004016119bd9061292e565b60405180910390fd5b6119cf81610c5c565b15611a0f576040517f08c379a0000000000000000000000000000000000000000000000000000000008152600401611a069061282e565b60405180910390fd5b611a1b6000838361159f565b6001600360008473ffffffffffffffffffffffffffffffffffffffff1673ffffffffffffffffffffffffffffffffffffffff1681526020019081526020016000206000828254611a6b9190612acd565b92505081905550816002600083815260200190815260200160002060006101000a81548173ffffffffffffffffffffffffffffffffffffffff021916908373ffffffffffffffffffffffffffffffffffffffff160217905550808273ffffffffffffffffffffffffffffffffffffffff16600073ffffffffffffffffffffffffffffffffffffffff167fddf252ad1be2c89b69c2b068fc378daa952ba7f163c4a11628f55a4df523b3ef60405160405180910390a45050565b828054611b3090612c98565b90600052602060002090601f016020900481019282611b525760008555611b99565b82601f10611b6b57805160ff1916838001178555611b99565b82800160010185558215611b99579182015b82811115611b98578251825591602001919060010190611b7d565b5b509050611ba69190611baa565b5090565b5b80821115611bc3576000816000905550600101611bab565b5090565b6000611bda611bd584612a5a565b612a29565b905082815260208101848484011115611bf257600080fd5b611bfd848285612c56565b509392505050565b600081359050611c1481612e11565b92915050565b600081359050611c2981612e28565b92915050565b600081359050611c3e81612e3f565b92915050565b600081519050611c5381612e3f565b92915050565b600082601f830112611c6a57600080fd5b8135611c7a848260208601611bc7565b91505092915050565b600081359050611c9281612e56565b92915050565b600060208284031215611caa57600080fd5b6000611cb884828501611c05565b91505092915050565b60008060408385031215611cd457600080fd5b6000611ce285828601611c05565b9250506020611cf385828601611c05565b9150509250929050565b600080600060608486031215611d1257600080fd5b6000611d2086828701611c05565b9350506020611d3186828701611c05565b9250506040611d4286828701611c83565b9150509250925092565b60008060008060808587031215611d6257600080fd5b6000611d7087828801611c05565b9450506020611d8187828801611c05565b9350506040611d9287828801611c83565b925050606085013567ffffffffffffffff811115611daf57600080fd5b611dbb87828801611c59565b91505092959194509250565b60008060408385031215611dda57600080fd5b6000611de885828601611c05565b9250506020611df985828601611c1a565b9150509250929050565b60008060408385031215611e1657600080fd5b6000611e2485828601611c05565b9250506020611e3585828601611c83565b9150509250929050565b600060208284031215611e5157600080fd5b6000611e5f84828501611c2f565b91505092915050565b600060208284031215611e7a57600080fd5b6000611e8884828501611c44565b91505092915050565b600060208284031215611ea357600080fd5b6000611eb184828501611c83565b91505092915050565b611ec381612be2565b82525050565b611ed281612bf4565b82525050565b6000611ee382612a8a565b611eed8185612aa0565b9350611efd818560208601612c65565b611f0681612e00565b840191505092915050565b6000611f1c82612a95565b611f268185612ab1565b9350611f36818560208601612c65565b611f3f81612e00565b840191505092915050565b6000611f5582612a95565b611f5f8185612ac2565b9350611f6f818560208601612c65565b80840191505092915050565b6000611f88603283612ab1565b91507f4552433732313a207472616e7366657220746f206e6f6e20455243373231526560008301527f63656976657220696d706c656d656e74657200000000000000000000000000006020830152604082019050919050565b6000611fee601c83612ab1565b91507f4552433732313a20746f6b656e20616c7265616479206d696e746564000000006000830152602082019050919050565b600061202e602483612ab1565b91507f4552433732313a207472616e7366657220746f20746865207a65726f2061646460008301527f72657373000000000000000000000000000000000000000000000000000000006020830152604082019050919050565b6000612094601983612ab1565b91507f4552433732313a20617070726f766520746f2063616c6c6572000000000000006000830152602082019050919050565b60006120d4602c83612ab1565b91507f4552433732313a206f70657261746f7220717565727920666f72206e6f6e657860008301527f697374656e7420746f6b656e00000000000000000000000000000000000000006020830152604082019050919050565b600061213a603883612ab1565b91507f4552433732313a20617070726f76652063616c6c6572206973206e6f74206f7760008301527f6e6572206e6f7220617070726f76656420666f7220616c6c00000000000000006020830152604082019050919050565b60006121a0602a83612ab1565b91507f4552433732313a2062616c616e636520717565727920666f7220746865207a6560008301527f726f2061646472657373000000000000000000000000000000000000000000006020830152604082019050919050565b6000612206602983612ab1565b91507f4552433732313a206f776e657220717565727920666f72206e6f6e657869737460008301527f656e7420746f6b656e00000000000000000000000000000000000000000000006020830152604082019050919050565b600061226c602e83612ab1565b91507f45524337323155524953746f726167653a2055524920736574206f66206e6f6e60008301527f6578697374656e7420746f6b656e0000000000000000000000000000000000006020830152604082019050919050565b60006122d2600e83612ac2565b91507f7b226e616d65223a224a4d4c222c0000000000000000000000000000000000006000830152600e82019050919050565b6000612312602083612ab1565b91507f4552433732313a206d696e7420746f20746865207a65726f20616464726573736000830152602082019050919050565b6000612352603183612ab1565b91507f45524337323155524953746f726167653a2055524920717565727920666f722060008301527f6e6f6e6578697374656e7420746f6b656e0000000000000000000000000000006020830152604082019050919050565b60006123b8602c83612ab1565b91507f4552433732313a20617070726f76656420717565727920666f72206e6f6e657860008301527f697374656e7420746f6b656e00000000000000000000000000000000000000006020830152604082019050919050565b600061241e602983612ab1565b91507f4552433732313a207472616e73666572206f6620746f6b656e2074686174206960008301527f73206e6f74206f776e00000000000000000000000000000000000000000000006020830152604082019050919050565b6000612484602f83612ab1565b91507f4552433732314d657461646174613a2055524920717565727920666f72206e6f60008301527f6e6578697374656e7420746f6b656e00000000000000000000000000000000006020830152604082019050919050565b60006124ea602183612ab1565b91507f4552433732313a20617070726f76616c20746f2063757272656e74206f776e6560008301527f72000000000000000000000000000000000000000000000000000000000000006020830152604082019050919050565b6000612550603183612ab1565b91507f4552433732313a207472616e736665722063616c6c6572206973206e6f74206f60008301527f776e6572206e6f7220617070726f7665640000000000000000000000000000006020830152604082019050919050565b60006125b6606483612ac2565b91507f22696d616765223a202268747470733a2f2f62616679626569687a666f6f653460008301527f377a677332676b747a766e766d686967787262717578346a617336657a78737560208301527f6e6c79766f6e676d336b3379612e697066732e696e667572612d697066732e6960408301527f6f2f227d000000000000000000000000000000000000000000000000000000006060830152606482019050919050565b6000612668602883612ac2565b91507f226465736372697074696f6e223a202269747320612062656175746966756c2060008301527f63616d656c21222c0000000000000000000000000000000000000000000000006020830152602882019050919050565b60006126ce601283612ac2565b91507f226174747269627574657322203a2022222c00000000000000000000000000006000830152601282019050919050565b61270a81612c4c565b82525050565b600061271c8285611f4a565b91506127288284611f4a565b91508190509392505050565b600061273f826122c5565b915061274a8261265b565b9150612755826126c1565b9150612760826125a9565b9150819050919050565b600060208201905061277f6000830184611eba565b92915050565b600060808201905061279a6000830187611eba565b6127a76020830186611eba565b6127b46040830185612701565b81810360608301526127c68184611ed8565b905095945050505050565b60006020820190506127e66000830184611ec9565b92915050565b600060208201905081810360008301526128068184611f11565b905092915050565b6000602082019050818103600083015261282781611f7b565b9050919050565b6000602082019050818103600083015261284781611fe1565b9050919050565b6000602082019050818103600083015261286781612021565b9050919050565b6000602082019050818103600083015261288781612087565b9050919050565b600060208201905081810360008301526128a7816120c7565b9050919050565b600060208201905081810360008301526128c78161212d565b9050919050565b600060208201905081810360008301526128e781612193565b9050919050565b60006020820190508181036000830152612907816121f9565b9050919050565b600060208201905081810360008301526129278161225f565b9050919050565b6000602082019050818103600083015261294781612305565b9050919050565b6000602082019050818103600083015261296781612345565b9050919050565b60006020820190508181036000830152612987816123ab565b9050919050565b600060208201905081810360008301526129a781612411565b9050919050565b600060208201905081810360008301526129c781612477565b9050919050565b600060208201905081810360008301526129e7816124dd565b9050919050565b60006020820190508181036000830152612a0781612543565b9050919050565b6000602082019050612a236000830184612701565b92915050565b6000604051905081810181811067ffffffffffffffff82111715612a5057612a4f612dd1565b5b8060405250919050565b600067ffffffffffffffff821115612a7557612a74612dd1565b5b601f19601f8301169050602081019050919050565b600081519050919050565b600081519050919050565b600082825260208201905092915050565b600082825260208201905092915050565b600081905092915050565b6000612ad882612c4c565b9150612ae383612c4c565b9250827fffffffffffffffffffffffffffffffffffffffffffffffffffffffffffffffff03821115612b1857612b17612d44565b5b828201905092915050565b6000612b2e82612c4c565b9150612b3983612c4c565b925082612b4957612b48612d73565b5b828204905092915050565b6000612b5f82612c4c565b9150612b6a83612c4c565b9250817fffffffffffffffffffffffffffffffffffffffffffffffffffffffffffffffff0483118215151615612ba357612ba2612d44565b5b828202905092915050565b6000612bb982612c4c565b9150612bc483612c4c565b925082821015612bd757612bd6612d44565b5b828203905092915050565b6000612bed82612c2c565b9050919050565b60008115159050919050565b60007fffffffff0000000000000000000000000000000000000000000000000000000082169050919050565b600073ffffffffffffffffffffffffffffffffffffffff82169050919050565b6000819050919050565b82818337600083830152505050565b60005b83811015612c83578082015181840152602081019050612c68565b83811115612c92576000848401525b50505050565b60006002820490506001821680612cb057607f821691505b60208210811415612cc457612cc3612da2565b5b50919050565b6000612cd582612c4c565b91507fffffffffffffffffffffffffffffffffffffffffffffffffffffffffffffffff821415612d0857612d07612d44565b5b600182019050919050565b6000612d1e82612c4c565b9150612d2983612c4c565b925082612d3957612d38612d73565b5b828206905092915050565b7f4e487b7100000000000000000000000000000000000000000000000000000000600052601160045260246000fd5b7f4e487b7100000000000000000000000000000000000000000000000000000000600052601260045260246000fd5b7f4e487b7100000000000000000000000000000000000000000000000000000000600052602260045260246000fd5b7f4e487b7100000000000000000000000000000000000000000000000000000000600052604160045260246000fd5b6000601f19601f8301169050919050565b612e1a81612be2565b8114612e2557600080fd5b50565b612e3181612bf4565b8114612e3c57600080fd5b50565b612e4881612c00565b8114612e5357600080fd5b50565b612e5f81612c4c565b8114612e6a57600080fd5b5056fe4142434445464748494a4b4c4d4e4f505152535455565758595a6162636465666768696a6b6c6d6e6f707172737475767778797a303132333435363738392b2fa264697066735822122045c838bb1d8374071a71a845e83f9983e49c0ba6b6c7821ff521ec5bdce7fbc364736f6c63430008000033",
  "devdoc": {
    "kind": "dev",
    "methods": {
      "approve(address,uint256)": {
        "details": "See {IERC721-approve}."
      },
      "balanceOf(address)": {
        "details": "See {IERC721-balanceOf}."
      },
      "getApproved(uint256)": {
        "details": "See {IERC721-getApproved}."
      },
      "isApprovedForAll(address,address)": {
        "details": "See {IERC721-isApprovedForAll}."
      },
      "name()": {
        "details": "See {IERC721Metadata-name}."
      },
      "ownerOf(uint256)": {
        "details": "See {IERC721-ownerOf}."
      },
      "safeTransferFrom(address,address,uint256)": {
        "details": "See {IERC721-safeTransferFrom}."
      },
      "safeTransferFrom(address,address,uint256,bytes)": {
        "details": "See {IERC721-safeTransferFrom}."
      },
      "setApprovalForAll(address,bool)": {
        "details": "See {IERC721-setApprovalForAll}."
      },
      "supportsInterface(bytes4)": {
        "details": "See {IERC165-supportsInterface}."
      },
      "symbol()": {
        "details": "See {IERC721Metadata-symbol}."
      },
      "tokenURI(uint256)": {
        "details": "See {IERC721Metadata-tokenURI}."
      },
      "transferFrom(address,address,uint256)": {
        "details": "See {IERC721-transferFrom}."
      }
    },
    "version": 1
  },
  "userdoc": {
    "kind": "user",
    "methods": {},
    "version": 1
  },
  "storageLayout": {
    "storage": [
      {
        "astId": 25,
        "contract": "contracts/camelNFT.sol:CamelNFT",
        "label": "_name",
        "offset": 0,
        "slot": "0",
        "type": "t_string_storage"
      },
      {
        "astId": 27,
        "contract": "contracts/camelNFT.sol:CamelNFT",
        "label": "_symbol",
        "offset": 0,
        "slot": "1",
        "type": "t_string_storage"
      },
      {
        "astId": 31,
        "contract": "contracts/camelNFT.sol:CamelNFT",
        "label": "_owners",
        "offset": 0,
        "slot": "2",
        "type": "t_mapping(t_uint256,t_address)"
      },
      {
        "astId": 35,
        "contract": "contracts/camelNFT.sol:CamelNFT",
        "label": "_balances",
        "offset": 0,
        "slot": "3",
        "type": "t_mapping(t_address,t_uint256)"
      },
      {
        "astId": 39,
        "contract": "contracts/camelNFT.sol:CamelNFT",
        "label": "_tokenApprovals",
        "offset": 0,
        "slot": "4",
        "type": "t_mapping(t_uint256,t_address)"
      },
      {
        "astId": 45,
        "contract": "contracts/camelNFT.sol:CamelNFT",
        "label": "_operatorApprovals",
        "offset": 0,
        "slot": "5",
        "type": "t_mapping(t_address,t_mapping(t_address,t_bool))"
      },
      {
        "astId": 977,
        "contract": "contracts/camelNFT.sol:CamelNFT",
        "label": "_tokenURIs",
        "offset": 0,
        "slot": "6",
        "type": "t_mapping(t_uint256,t_string_storage)"
      },
      {
        "astId": 1880,
        "contract": "contracts/camelNFT.sol:CamelNFT",
        "label": "_tokenIds",
        "offset": 0,
        "slot": "7",
        "type": "t_struct(Counter)1444_storage"
      }
    ],
    "types": {
      "t_address": {
        "encoding": "inplace",
        "label": "address",
        "numberOfBytes": "20"
      },
      "t_bool": {
        "encoding": "inplace",
        "label": "bool",
        "numberOfBytes": "1"
      },
      "t_mapping(t_address,t_bool)": {
        "encoding": "mapping",
        "key": "t_address",
        "label": "mapping(address => bool)",
        "numberOfBytes": "32",
        "value": "t_bool"
      },
      "t_mapping(t_address,t_mapping(t_address,t_bool))": {
        "encoding": "mapping",
        "key": "t_address",
        "label": "mapping(address => mapping(address => bool))",
        "numberOfBytes": "32",
        "value": "t_mapping(t_address,t_bool)"
      },
      "t_mapping(t_address,t_uint256)": {
        "encoding": "mapping",
        "key": "t_address",
        "label": "mapping(address => uint256)",
        "numberOfBytes": "32",
        "value": "t_uint256"
      },
      "t_mapping(t_uint256,t_address)": {
        "encoding": "mapping",
        "key": "t_uint256",
        "label": "mapping(uint256 => address)",
        "numberOfBytes": "32",
        "value": "t_address"
      },
      "t_mapping(t_uint256,t_string_storage)": {
        "encoding": "mapping",
        "key": "t_uint256",
        "label": "mapping(uint256 => string)",
        "numberOfBytes": "32",
        "value": "t_string_storage"
      },
      "t_string_storage": {
        "encoding": "bytes",
        "label": "string",
        "numberOfBytes": "32"
      },
      "t_struct(Counter)1444_storage": {
        "encoding": "inplace",
        "label": "struct Counters.Counter",
        "members": [
          {
            "astId": 1443,
            "contract": "contracts/camelNFT.sol:CamelNFT",
            "label": "_value",
            "offset": 0,
            "slot": "0",
            "type": "t_uint256"
          }
        ],
        "numberOfBytes": "32"
      },
      "t_uint256": {
        "encoding": "inplace",
        "label": "uint256",
        "numberOfBytes": "32"
      }
    }
  }
}